:100000000C9463000C948B000C948B000C948B006C
:100010000C948B000C948B000C948B000C94B70404
:100020000C948B000C948B000C948B000C948B0024
:100030000C948B000C948B000C948B000C948B0014
:100040000C94FA020C948B000C946A030C944403F5
:100050000C948B000C948B000C948B000C948B00F4
:100060000C949C030C948B000000000024002700DB
:100070002A000000000023002600290000000000E4
:10008000250028002B0004040404040404040202D4
:100090000202020203030303030301020408102007
:1000A0004080010204081020010204081020000012
:1000B0000008000201000003040700000000000027
:1000C0000000E804E10611241FBECFEFD8E0DEBF38
:1000D000CDBF11E0A0E0B1E0E8E8F0E102C005909A
:1000E0000D92AA32B107D9F722E0AAE2B1E001C02D
:1000F0001D92A836B207E1F710E0C2E6D0E004C0D6
:100100002197FE010E940C07C136D107C9F70E9452
:1001100019050C9437080C940000833081F028F402
:10012000813099F08230A9F008958730A9F08830A5
:10013000C9F08430B1F4809180008F7D03C080913C
:1001400080008F7780938000089584B58F7784BD79
:10015000089584B58F7DFBCF8091B0008F77809319
:10016000B00008958091B0008F7DF9CF1F93CF9399
:10017000DF93282F30E0F901E255FF4F8491F90118
:10018000E656FF4FD491F901EA57FF4FC491CC23B3
:10019000A9F0162F81110E948D00EC2FF0E0EE0FD8
:1001A000FF1FE458FF4FA591B4918FB7F894EC91DD
:1001B000111108C0D095DE23DC938FBFDF91CF9162
:1001C0001F910895DE2BF8CFAF92BF92CF92DF92AE
:1001D000EF92FF920F931F93CF93DF936C017B01FC
:1001E0008B01040F151FEB015E01AE18BF08C0178D
:1001F000D10759F06991D601ED91FC910190F08100
:10020000E02DC6010995892B79F7C501DF91CF91C2
:100210001F910F91FF90EF90DF90CF90BF90AF9024
:100220000895FC01538D448D252F30E0842F90E0FC
:10023000821B930B541710F0CF96089501970895E1
:10024000FC01918D828D981761F0A28DAE0FBF2FAA
:10025000B11D5D968C91928D9F5F9F73928F90E000
:1002600008958FEF9FEF0895FC01918D828D98176F
:1002700031F0828DE80FF11D858D90E008958FEFAC
:100280009FEF0895FC01918D228D892F90E0805C75
:100290009F4F821B91098F739927089585EC91E0F8
:1002A0000E94420121E0892B09F420E0822F089569
:1002B00080E090E0892B29F00E944E0181110C947E
:1002C00000000895FC01A48DA80FB92FB11DA35AF9
:1002D000BF4F2C91848D90E001968F739927848F66
:1002E000A689B7892C93A089B1898C918370806489
:1002F0008C93938D848D981306C00288F389E02D2A
:1003000080818F7D80830895EF92FF920F931F93DA
:10031000CF93DF93EC0181E0888F9B8D8C8D9813B8
:100320001AC0E889F989808185FF15C09FB7F894C4
:10033000EE89FF896083E889F98980818370806410
:1003400080839FBF81E090E0DF91CF911F910F915B
:10035000FF90EF900895F62E0B8D10E00F5F1F4F6A
:100360000F731127E02E8C8D8E110CC00FB607FC79
:10037000FACFE889F989808185FFF5CFCE010E9407
:100380006201F1CFEB8DEC0FFD2FF11DE35AFF4F12
:10039000F0829FB7F8940B8FEA89FB898081806295
:1003A000CFCFCF93DF93EC01888D8823B9F0AA8952
:1003B000BB89E889F9898C9185FD03C0808186FD20
:1003C0000DC00FB607FCF7CF8C9185FFF2CF80816F
:1003D00085FFEDCFCE010E946201E9CFDF91CF9181
:1003E00008950F931F93CF93DF930091A70110916E
:1003F000A8012091A9013091AA01DC01CB01800F55
:10040000911FA21FB31F8093A7019093A801A093EF
:10041000A901B093AA01D0E0C0E0FE01EE0FFF1FDA
:10042000EC0FFD1FE556FE4F8281882321F00190DD
:10043000F081E02D09952196C330D10571F7DF9148
:10044000CF911F910F91089520915101260F3327CD
:10045000331F21323105ECF420917501FC0190E04D
:1004600080E0243069F082E00895A091510121914B
:10047000AC014F5C5E4FA40FB52FB11D2C930196BC
:10048000861798F380915101680F6093510180E0C5
:10049000089581E0089508958FEF9FEF08958FEFFD
:1004A0009FEF089580912A0190E09195819591099F
:1004B0000895CF93DF93CB01EA01642F0E942402B9
:1004C000CE01DF91CF910895CF93DF931F92CDB7E7
:1004D000DEB7698361E0CE0101960E94240281E0CB
:1004E00090E00F90DF91CF91089590E080E0089523
:1004F000FC0101900020E9F73197AF01481B590B2F
:10050000BC0185EC91E00C94E4001F93CF93DF9342
:1005100085ED8093BC0080912D0190912E01A091DA
:100520002F01B09130010796A11DB11D23E0B695B2
:10053000A795979587952A95D1F72091BC0024FD22
:1005400003C01092750152C040912D0150912E01AF
:1005500060912F0170913001452B462B472B69F399
:100560000097A105B10541F02AE22A95F1F700C0F4
:100570000197A109B109E1CF80912C01C1E0C0939D
:100580002B01882399F1D091B8001091BA00809185
:10059000BC008A7B8093BC0060E082E10E94B600D0
:1005A00060E083E10E94B60010927501C09377016C
:1005B0001092760161E082E10E94B60061E083E181
:1005C0000E94B6008091B9008E7F8093B90080911F
:1005D000B9008D7F8093B90088E48093B80085E4EA
:1005E0008093BC001093BA00D093B800DF91CF91F4
:1005F0001F9108951F920F920FB60F9211242F93FF
:100600003F938F939F93AF93BF938091C10190913C
:10061000C201A091C301B091C4013091C00123E097
:10062000230F2D3758F50196A11DB11D2093C00150
:100630008093C1019093C201A093C301B093C40100
:100640008091BC019091BD01A091BE01B091BF010C
:100650000196A11DB11D8093BC019093BD01A09393
:10066000BE01B093BF01BF91AF919F918F913F9118
:100670002F910F900FBE0F901F90189526E8230F13
:100680000296A11DB11DD2CF1F920F920FB60F92ED
:1006900011242F933F934F935F936F937F938F9387
:1006A0009F93AF93BF93EF93FF9385EC91E00E94EC
:1006B0006201FF91EF91BF91AF919F918F917F91D7
:1006C0006F915F914F913F912F910F900FBE0F90BF
:1006D0001F9018951F920F920FB60F9211242F930F
:1006E0008F939F93EF93FF93E091D501F091D60103
:1006F0008081E091DB01F091DC0182FD1BC09081E3
:100700008091DE018F5F8F732091DF01821741F0AE
:10071000E091DE01F0E0EB53FE4F958F8093DE0118
:10072000FF91EF919F918F912F910F900FBE0F909E
:100730001F9018958081F4CF1F920F920FB60F92E1
:1007400011242F933F934F935F936F937F938F93D6
:100750009F93AF93BF93EF93FF938091B900887FEE
:10076000803609F44AC0F0F5883209F4A5C018F5BE
:10077000803109F499C0B8F4882309F4F5C08830B1
:1007800009F492C0FF91EF91BF91AF919F918F912A
:100790007F916F915F914F913F912F910F900FBE7D
:1007A0000F901F901895883109F486C0803251F758
:1007B0008093740114C0803409F49BC040F48033EA
:1007C000B9F38833F9F68093740185ECAEC08035B7
:1007D00009F483C0883509F494C0883499F60E94DE
:1007E0008502D0CF883909F48AC038F5883729F0D6
:1007F00050F4883611F0803729F683E08093750134
:100800001092730155C0883809F479C0803919F005
:10081000803809F0B7CF80917301803208F06FC043
:10082000E091730181E08E0F809373018091BB0092
:10083000F0E0ED5AFE4F80833BC0803B39F0D0F4AE
:10084000803A09F477C0883A09F09CCF84E080931D
:1008500075011092520110925101F0E0E0E009950B
:100860008091510181110FC081E08093510110925C
:10087000310109C0803C09F4A8CF883C09F4A5CF18
:10088000883B09F07FCFE091520181E08E0F809389
:100890005201F0E0EF5CFE4F80818093BB009091AD
:1008A00052018091510129C080919A018093BB002F
:1008B00085EC8093BC0066CF90919901809198015E
:1008C000981758F5E091990181E08E0F8093990176
:1008D000F0E0E858FE4F8081E9CFE091990181E096
:1008E0008E0F809399018091BB00F0E0E858FE4F95
:1008F000808390919901809198019817C8F285E8BA
:10090000D8CFE091990181E08E0F80939901809179
:10091000BB00F0E0E858FE4F8083809177018111A1
:100920005ECF81E08093760184EA8093BC001092D0
:10093000750128CF85EC8093BC00109275018091E1
:100940007301803230F4E0917301F0E0ED5AFE4F14
:1009500010826091730170E083E591E0F0E0E0E0E7
:100960000995109273010ECF1092740138CF1F9227
:100970000F920FB60F9211242F933F934F935F93D3
:100980006F937F938F939F93AF93BF93EF93FF9357
:10099000E091A501F091A601309749F08091A40162
:1009A000882329F06CEF73E080E090E00995FF91D7
:1009B000EF91BF91AF919F918F917F916F915F91D7
:1009C0004F913F912F910F900FBE0F901F90189550
:1009D000E5ECF1E01382128288EE93E0A0E0B0E053
:1009E00084839583A683B7838AE091E09183808393
:1009F00085EC90E09587848784EC90E097878687E4
:100A000080EC90E0918B808B81EC90E0938B828BDB
:100A100082EC90E0958B848B86EC90E0978B868BB4
:100A2000118E128E138E148E109263021092620237
:100A30000895CF93DF93CDB7DEB7A1970FB6F894A3
:100A4000DEBF0FBECDBF789484B5826084BD84B50F
:100A5000816084BD85B5826085BD85B5816085BDB9
:100A600080916E00816080936E0010928100809171
:100A700081008260809381008091810081608093F9
:100A80008100809180008160809380008091B1001E
:100A900084608093B1008091B00081608093B00049
:100AA00080917A00846080937A0080917A008260DD
:100AB00080937A0080917A00816080937A0080919F
:100AC0007A00806880937A001092C100E091D5018D
:100AD000F091D60182E08083E091D101F091D201C2
:100AE0001082E091D301F091D4018FEC80831092B9
:100AF000DD01E091D901F091DA0186E08083E09197
:100B0000D701F091D801808180618083E091D70185
:100B1000F091D801808188608083E091D701F091C5
:100B2000D801808180688083E091D701F091D8015D
:100B300080818F7D808310929D011092A001109280
:100B4000A301809170008D7F8093700081EF91E010
:100B50009093A6018093A5011092B0001092B1006D
:100B60001092B2008091B00082608093B0008EEF4E
:100B70008093B3008091B10084608093B10091E0D4
:100B80009093A401809170008260809370008091A6
:100B900070008D7F809370004091A7015091A80153
:100BA0006091A9017091AA01809170008260809388
:100BB00070004093B3015093B4016093B5017093FA
:100BC000B60140E452E46FE070E04093B701509307
:100BD000B8016093B9017093BA019093BB0107EA21
:100BE00010E0F801249153E9252E50E0352EF10153
:100BF0008491882399F090E0880F991FFC01E859AF
:100C0000FF4FA591B491FC01E458FF4F8591949159
:100C10008FB7F8949C91292B2C938FBF9AE0492E83
:100C2000512C612C712C2BEB822E20E0922E30E087
:100C3000A32E30E0B32E8091BB01882309F4B5C008
:100C4000809170008D7F809370004091A70150913A
:100C5000A8016091A9017091AA0180917000826041
:100C6000809370008091B3019091B401A091B5017F
:100C7000B091B6016A017B01C81AD90AEA0AFB0AD7
:100C8000D701C601C090B701D090B801E090B9017A
:100C9000F090BA01C816D906EA06FB0608F085C02E
:100CA0004093B3015093B4016093B5017093B601C2
:100CB0002FB7F8948091C1019091C201A091C30116
:100CC000B091C4012FBF4091AF015091B00160912C
:100CD000B1017091B201841B950BA60BB70B8093E9
:100CE000AB019093AC01A093AD01B093AE012FB7CF
:100CF000F8948091C1019091C201A091C301B0917B
:100D0000C4012FBF8093AF019093B001A093B101B4
:100D1000B093B20188E191E00E9478022091AB018A
:100D20003091AC014091AD015091AE0119A26E011C
:100D300081E2C80ED11CCA01B901A30192010E942F
:100D4000EA06605DF60162936F01211531054105E8
:100D5000510589F7309719F0CF010E94780286E299
:100D600091E00E947802F4018491F801D490F1019D
:100D7000C49070E060E0CC2099F081110E948D0059
:100D8000EC2DF0E0EE0FFF1FEE58FF4FA591B49150
:100D90008C91D82291E080E009F490E0692F782FBF
:100DA000F1E06F278DE00E94B600A114B10409F4B0
:100DB00042CF0E944E01882309F43DCF0E940000DB
:100DC0003ACF8091620290916302009711F00C94E7
:100DD000AE070895A1E21A2EAA1BBB1BFD010DC090
:100DE000AA1FBB1FEE1FFF1FA217B307E407F507DB
:100DF00020F0A21BB30BE40BF50B661F771F881FB7
:100E0000991F1A9469F760957095809590959B014C
:100E1000AC01BD01CF010895EE0FFF1F0590F491C5
:100E2000E02D09940F931F93CF93DF9382309105A8
:100E300010F482E090E0E0916602F091670230E009
:100E400020E0B0E0A0E0309799F42115310509F4D5
:100E50004AC0281B390B24303105D8F58A819B8183
:100E60006115710589F1FB0193838283FE0111C035
:100E7000408151810281138148175907E0F04817DA
:100E8000590799F4109761F012960C9312971396E4
:100E90001C933296CF01DF91CF911F910F9108954E
:100EA0000093660210936702F4CF2115310551F0CB
:100EB0004217530738F0A901DB019A01BD01DF0198
:100EC000F801C1CFEF01F9CF9093670280936602DA
:100ED000CDCFFE01E20FF31F819391932250310990
:100EE00039832883D7CF2091640230916502232B68
:100EF00041F4209102013091030130936502209367
:100F0000640220910001309101012115310541F465
:100F10002DB73EB74091040150910501241B350BBC
:100F2000E0916402F0916502E217F307A0F42E1B32
:100F30003F0B2817390778F0AC014E5F5F4F24173D
:100F4000350748F04E0F5F1F5093650240936402CF
:100F5000819391939FCFF0E0E0E09CCFCF93DF931C
:100F60000097E9F0FC01329713821282A091660289
:100F7000B0916702ED0130E020E01097A1F42081EC
:100F80003181820F931F20916402309165022817EE
:100F9000390709F061C0F0936502E0936402DF91C4
:100FA000CF910895EA01CE17DF07E8F54A815B810A
:100FB0009E0141155105B1F7E901FB83EA8349918F
:100FC0005991C40FD51FEC17FD0761F48081918101
:100FD0000296840F951FE90199838883828193810A
:100FE0009B838A83F0E0E0E012968D919C911397A9
:100FF0000097B9F52D913C911197CD010296820F82
:10100000931F20916402309165022817390739F641
:10101000309751F51092670210926602B093650204
:10102000A0936402BCCFD383C28340815181840FDB
:10103000951FC817D90761F44E5F5F4F888199816A
:10104000480F591F518340838A819B8193838283F8
:101050002115310509F0B0CFF0936702E0936602E5
:101060009ECFFD01DC01C0CF13821282D7CF10E0EA
:10107000C2E6D0E004C0FE010E940C072196C336F0
:08108000D107C9F7F894FFCF76
:10108800000068028000000000008401E4001101F3
:10109800D10142012001340154696D6520706173EA
:0A10A8007365643A20000D0A000091
:00000001FF
