:100000000C9435000C945D000C945D000C945D0024
:100010000C945D000C945D000C945D000C945D00EC
:100020000C945D000C945D000C945D000C945D00DC
:100030000C945D000C945D000C945D000C945D00CC
:100040000C9425020C945D000C9495020C946F02A4
:100050000C945D000C945D000C945D000C945D00AC
:100060000C945D000C945D00470411241FBECFEF7B
:10007000D8E0DEBFCDBF11E0A0E0B1E0E8EFF8E0EE
:1000800002C005900D92AE32B107D9F722E0AEE280
:10009000B1E001C01D92A23BB207E1F710E0C5E359
:1000A000D0E004C02197FE010E947404C433D1073C
:1000B000C9F70E94C7020C947A040C9400003FB761
:1000C000F8948091AE029091AF02A091B002B091ED
:1000D000B10226B5A89B05C02F3F19F00196A11DBE
:1000E000B11D3FBFBA2FA92F982F8827BC01CD0182
:1000F000620F711D811D911D42E0660F771F881FE1
:10010000991F4A95D1F70895AF92BF92CF92DF928F
:10011000EF92FF920F931F93CF93DF936C017B01BC
:100120008B01040F151FEB015E01AE18BF08C0174D
:10013000D10759F06991D601ED91FC910190F081C0
:10014000E02DC6010995892B79F7C501DF91CF9183
:100150001F910F91FF90EF90DF90CF90BF90AF90E5
:100160000895FC01538D448D252F30E0842F90E0BD
:10017000821B930B541710F0CF96089501970895A2
:10018000FC01918D828D981761F0A28DAE0FBF2F6B
:10019000B11D5D968C91928D9F5F9F73928F90E0C1
:1001A00008958FEF9FEF0895FC01918D828D981730
:1001B00031F0828DE80FF11D858D90E008958FEF6D
:1001C0009FEF0895FC01918D228D892F90E0805C36
:1001D0009F4F821B91098F73992708958CE491E0BA
:1001E0000E94E20021E0892B09F420E0822F08958B
:1001F00080E090E0892B29F00E94EE0081110C94A0
:1002000000000895FC01A48DA80FB92FB11DA35AB9
:10021000BF4F2C91848D90E001968F739927848F26
:10022000A689B7892C93A089B1898C918370806449
:100230008C93938D848D981306C00288F389E02DEA
:1002400080818F7D80830895EF92FF920F931F939B
:10025000CF93DF93EC0181E0888F9B8D8C8D981379
:100260001AC0E889F989808185FF15C09FB7F89485
:10027000EE89FF896083E889F989808183708064D1
:1002800080839FBF81E090E0DF91CF911F910F911C
:10029000FF90EF900895F62E0B8D10E00F5F1F4F2B
:1002A0000F731127E02E8C8D8E110CC00FB607FC3A
:1002B000FACFE889F989808185FFF5CFCE010E94C8
:1002C0000201F1CFEB8DEC0FFD2FF11DE35AFF4F33
:1002D000F0829FB7F8940B8FEA89FB898081806256
:1002E000CFCF0F931F93CF93DF93EC018C01060FB9
:1002F000171FC017D10731F069918CE491E00E947B
:100300002401F7CFDF91CF911F910F910895CF93E3
:10031000DF93EC01888D8823B9F0AA89BB89E8892D
:10032000F9898C9185FD03C0808186FD0DC00FB6D3
:1003300007FCF7CF8C9185FFF2CF808185FFEDCF51
:10034000CE010E940201E9CFDF91CF910895DF92A3
:10035000EF92FF920F931F93CF93DF93E091A4024C
:10036000F091A502DF011F96A00FB11FA53BB105BB
:1003700060F1A091EF01A11120C0A1E0A093EF01D5
:10038000DF01A051BE4FCAEACC9311961C9211977F
:1003900012961C921297C2E01396CC93139735963F
:1003A000F093A502E093A40214961C92E0912E0112
:1003B000F0912F01309709F00995DF91CF911F91AE
:1003C0000F91FF90EF90DF900895DC01AA0FBB1F03
:1003D000AA0FBB1FA05DBE4FA60FB71FAC91AA23EB
:1003E00061F3DF01A051BE4FCAEACC9311968C9302
:1003F000119712966C93129713964C931397359608
:10040000F093A502E093A40214960C93D901EF0196
:10041000C051DE4F7801E20EF31EAE15BF0591F418
:10042000E00FF11FF093A502E093A402E0912E01EA
:10043000F0912F01309709F2672B09F0BECF70E0E1
:1004400060E0BACFDD90D992E8CF1F920F920FB63D
:100450000F9211242F933F938F939F93AF93BF934A
:100460008091AA029091AB02A091AC02B091AD0232
:100470003091A90223E0230F2D3758F50196A11DD5
:10048000B11D2093A9028093AA029093AB02A0937E
:10049000AC02B093AD028091AE029091AF02A091F8
:1004A000B002B091B1020196A11DB11D8093AE02C0
:1004B0009093AF02A093B002B093B102BF91AF91FD
:1004C0009F918F913F912F910F900FBE0F901F9092
:1004D000189526E8230F0296A11DB11DD2CF1F92B9
:1004E0000F920FB60F9211242F933F934F935F9368
:1004F0006F937F938F939F93AF93BF93EF93FF93EC
:100500008CE491E00E940201FF91EF91BF91AF91C5
:100510009F918F917F916F915F914F913F912F911B
:100520000F900FBE0F901F9018951F920F920FB64D
:100530000F9211242F938F939F93EF93FF93E0914A
:100540005C01F0915D018081E0916201F0916301B5
:1005500082FD1BC09081809165018F5F8F73209118
:100560006601821741F0E0916501F0E0E45BFE4F27
:10057000958F80936501FF91EF919F918F912F91BE
:100580000F900FBE0F901F9018958081F4CFCF93DE
:10059000DF93CDB7DEB76D970FB6F894DEBF0FBE11
:1005A000CDBF789484B5826084BD84B5816084BDFC
:1005B00085B5826085BD85B5816085BD80916E0001
:1005C000816080936E001092810080918100826032
:1005D000809381008091810081608093810080916F
:1005E00080008160809380008091B100846080935E
:1005F000B1008091B00081608093B00080917A005A
:10060000846080937A0080917A00826080937A007F
:1006100080917A00816080937A0080917A0080686E
:1006200080937A001092C100E0915C01F0915D012D
:1006300082E08083E0915801F09159011082E091AD
:100640005A01F0915B018FEC808310926401E0917C
:100650006001F091610186E08083E0915E01F0919C
:100660005F01808180618083E0915E01F0915F0194
:10067000808188608083E0915E01F0915F018081DC
:1006800080688083E0915E01F0915F0180818F7DC1
:1006900080831092A5021092A402E0E3F1E08CE4C2
:1006A00091E0DF011C9211961C92119712961C92F8
:1006B000129713961C92139714968A179B0791F71B
:1006C0001092EF0110922F0110922E0181E0809381
:1006D000A6028091E9019091EA01892B09F4CCC02E
:1006E0008091EB019091EC01892B09F4C8C08091B5
:1006F000ED019091EE01892B59F482E090E0880F92
:10070000991FDC01A751BE4F81E791E08D939C9327
:1007100081E0349721E0E031F20709F0B3C090E0C6
:10072000A92E90E0B92E8BE1E2E1F1E0DE01119615
:1007300001900D928A95E1F78091A602882369F0D5
:100740000BE110E09E012F5F3F4F50E040E063E07F
:1007500070E086E090E00E94A7018091A6028823C5
:1007600061F010E000E030E020E041E050E063E0C4
:1007700070E081E090E00E94A7018091A6028823AA
:1007800061F010E000E030E020E042E050E070E096
:1007900060E090E080E00E94A7019091A702809124
:1007A000A8029C8F8D8F8091A602882369F002E0B9
:1007B00010E09E01245E3F4F44E050E062E070E0B4
:1007C00082E090E00E94A7018091A6028823D1F0E8
:1007D000E090A402F090A50209EE11E0D801ED919D
:1007E000FD918D01309721F0B70180EF91E00995DF
:1007F000B1E00F3E1B0791F71092A5021092A402E0
:100800001092EF018091A7029091A8020196909317
:10081000A8028093A7020E945F006B017C0180ED1B
:10082000482E87E0582E612C712C0E945F006C19B5
:100830007D098E099F09683E734081059105A8F3E3
:1008400021E0421A51086108710888EEC80E83E061
:10085000D81EE11CF11C411451046104710429F7F4
:10086000A114B10409F45FCF0E94EE00882309F4BB
:100870005ACF0E94000057CF90E080E040CF81E047
:1008800090E03DCF878F868F858F848F42CFECE4B9
:10089000F1E01382128288EE93E0A0E0B0E084835E
:1008A0009583A683B78384E091E09183808385EC70
:1008B00090E09587848784EC90E09787868780EC2A
:1008C00090E0918B808B81EC90E0938B828B82EC1B
:1008D00090E0958B848B86EC90E0978B868B118EC5
:1008E000128E138E148E0895EE0FFF1F0590F49153
:0808F000E02D0994F894FFCFFC
:1008F8000000000024018400B1008701E200C0006C
:10090800D40054686973206973206120726177206C
:0E09180074657374206D65737361676500000C
:00000001FF
