:100000000C9470000C9498000C9498000C94980038
:100010000C9498000C9498000C9498000C94980000
:100020000C9498000C9498000C9498000C949800F0
:100030000C9498000C9498000C9498000C949800E0
:100040000C94FB070C9498000C946B080C944508D6
:100050000C9498000C9498000C9498000C949800C0
:100060000C949D080C949800084AD73B3BCE016E37
:1000700084BCBFFDC12F3D6C74319ABD56833DDAFF
:100080003D00C77F11BED9E4BB4C3E916BAAAABE0E
:10009000000000803F0000000000250028002B0029
:1000A000040404040404040402020202020203031E
:1000B0000303030301020408102040800102040826
:1000C00010200102040810200000000800020100B6
:1000D000000304070000000000000000190BBE0D23
:1000E00011241FBECFEFD8E0DEBFCDBF11E0A0E0EE
:1000F000B1E0EEEFF3E202C005900D92A839B1072E
:10010000D9F723E0A8E9B1E001C01D92A031B20700
:10011000E1F710E0CFE6D0E004C02197FE010E9495
:10012000E90DCE36D107C9F70E94560B0C94F21197
:100130000C9400000895089590E0FC01E853FF4FEF
:100140002491FC01EC54FF4F3491FC01E056FF4F29
:10015000E491EE23C9F0222339F0233001F1A8F411
:10016000213019F1223029F1F0E0EE0FFF1FEA569D
:10017000FF4FA591B4918FB7F894EC91611126C00F
:1001800030953E233C938FBF08952730A9F0283047
:10019000C9F0243049F7809180008F7D03C08091A1
:1001A00080008F7780938000DFCF84B58F7784BD08
:1001B000DBCF84B58F7DFBCF8091B0008F778093AC
:1001C000B000D2CF8091B0008F7DF9CF3E2BDACF37
:1001D000FC0180819181892B39F0A281B3819C91AE
:1001E00011968C919CBD8DBD83858F3F19F060E089
:1001F0000C949C000895FC0183858F3F19F061E009
:100200000C949C0008958230910538F0880F991F56
:10021000880F991F05970197F1F70895BF92CF9224
:10022000DF92EF92FF920F931F93CF93DF93EC0136
:1002300088819981892B81F06EBD0DB407FEFDCFB9
:100240000EB5802FDF91CF911F910F91FF90EF900E
:10025000DF90CF90BF9008958885998511E0892B14
:1002600009F010E8BB24B394862F812309F0B12C48
:10027000F62E2C813D814E815F8160E271EA87E03C
:1002800090E00E94C70DE22E00E0C22ED12CEE209D
:1002900019F0C6010E9403018A85982F977F09F003
:1002A00044C08D858F3F89F09F2D912381E009F413
:1002B00080E08B1551F0EF85F8898F89992379F1CA
:1002C0009081892B8083BB24B394E989FA8980814A
:1002D000998D892B8083EE2019F0C6010E940301BD
:1002E0008E858F3F39F0EB89FC898081988D892339
:1002F00009F0012BE989FA899081898D80958923FC
:10030000808388859985892B09F067C0110F1111A9
:10031000BECF8E858F3F09F094CF0F2D92CF908165
:10032000809589238083B12CD0CF8C3099F58D8531
:100330008F3F49F0EF85F8898F899F2D912331F107
:100340009081892B8083E989FA899081898D8095B4
:1003500089238083EE2019F0C6010E940301E989F8
:10036000FA898081998D892B8083EE2019F0C6014E
:100370000E9403018E858F3F21F2EB89FC898081E9
:10038000988D892309F4BDCF012BBBCF9081809537
:100390008923D8CFE989FA898081998D892B808337
:1003A000EE2019F0C6010E9403018D858F3F49F0B0
:1003B000EF85F8898F899F2D912359F09081892BA2
:1003C0008083E989FA899081898D8095892380834A
:1003D000D1CF908180958923F3CF169598CF8F92B6
:1003E0009F92AF92BF92CF92DF92EF92FF920F93C4
:1003F0001F93CF93DF937C014B016A01B22EA32E92
:100400000E94E800E401C80CD91CCC15DD0569F494
:10041000CB2DDA2D0C0F1D1FC017D10759F06FEF30
:10042000C7010E940E018993F7CF6991C7010E940D
:100430000E01EBCFC7010E94FB0081E0DF91CF915D
:100440001F910F91FF90EF90DF90CF90BF90AF90F2
:100450009F908F9008953FB7F8948091E701909115
:10046000E801A091E901B091EA0126B5A89B05C079
:100470002F3F19F00196A11DB11D3FBFBA2FA92F23
:10048000982F8827BC01CD01620F711D811D911D20
:1004900042E0660F771F881F991F4A95D1F708958C
:1004A000AF92BF92CF92DF92EF92FF920F931F9382
:1004B000CF93DF936C017B018B01040F151FEB01C0
:1004C0005E01AE18BF08C017D10759F06991D60177
:1004D000ED91FC910190F081E02DC6010995892BE9
:1004E00079F7C501DF91CF911F910F91FF90EF90A8
:1004F000DF90CF90BF90AF900895FC01538D448D55
:10050000252F30E0842F90E0821B930B541710F0BE
:10051000CF96089501970895FC01918D828D9817CB
:1005200061F0A28DAE0FBF2FB11D5D968C91928DA3
:100530009F5F9F73928F90E008958FEF9FEF0895D4
:10054000FC01918D828D981731F0828DE80FF11D9D
:10055000858D90E008958FEF9FEF0895FC01918DB8
:10056000228D892F90E0805C9F4F821B91098F73B1
:100570009927089581E692E00E94AE0221E0892B3E
:1005800009F420E0822F089580E090E0892B29F083
:100590000E94BA0281110C9400000895FC01A48D00
:1005A000A80FB92FB11DA35ABF4F2C91848D90E095
:1005B00001968F739927848FA689B7892C93A08978
:1005C000B1898C91837080648C93938D848D981302
:1005D00006C00288F389E02D80818F7D8083089595
:1005E000EF92FF920F931F93CF93DF93EC0181E083
:1005F000888F9B8D8C8D98131AC0E889F98980812A
:1006000085FF15C09FB7F894EE89FF896083E8895C
:10061000F98980818370806480839FBF81E090E04E
:10062000DF91CF911F910F91FF90EF900895F62EDB
:100630000B8D10E00F5F1F4F0F731127E02E8C8D75
:100640008E110CC00FB607FCFACFE889F9898081BA
:1006500085FFF5CFCE010E94CE02F1CFEB8DEC0FDE
:10066000FD2FF11DE35AFF4FF0829FB7F8940B8FD7
:10067000EA89FB8980818062CFCFCF93DF93EC0141
:10068000888D8823B9F0AA89BB89E889F9898C917A
:1006900085FD03C0808186FD0DC00FB607FCF7CF36
:1006A0008C9185FFF2CF808185FFEDCFCE010E9436
:1006B000CE02E9CFDF91CF9108952091B901260FA5
:1006C0003327331F21323105ECF420913702FC012E
:1006D00090E080E0243069F082E00895A091B901B3
:1006E0002191AC0147565E4FA40FB52FB11D2C933D
:1006F0000196861798F38091B901680F6093B9014C
:1007000080E0089581E008951092370281E080939F
:1007100036021092110261E082E10E949C0061E0C9
:1007200083E10E949C00E9EBF0E080818E7F808372
:1007300080818D7F808388E48093B80085E48093F6
:10074000BC000895CF93DF9391E0909398018823A4
:10075000B9F0C091B800D091BA008091BC008A7BFA
:100760008093BC0060E082E10E949C0060E083E135
:100770000E949C000E948403D093BA00C093B800EA
:10078000DF91CF9108958F929F92AF92BF92CF92B7
:10079000DF92EF92FF920F931F93CF93DF93D0914D
:1007A0006002D13208F0D7C0182FC0915F020E94BA
:1007B0002B026B017C018091370281116BC082E0BA
:1007C00080933702109336028FEF80933502109298
:1007D0003402D0933302AFE3B2E0E3E1F2E080E031
:1007E000D81391C01092120280911202CC0FC82B24
:1007F000C093120280911102813009F088C01092DA
:1008000011020E942B026B017C01809112028093E5
:10081000BB008091390290913A02A0913B02B091C5
:100820003C02892B8A2B8B2BA1F00E942B0200917A
:10083000390210913A0220913B0230913C026C192E
:100840007D098E099F09061717072807390708F43D
:1008500042C08091BC0083FDD8CF85EC8093BC0062
:100860000E942B026B017C0180913702823009F4D7
:1008700050C0809135028F3F09F46FC080913502DE
:10088000803209F46CC080913502803309F469C06C
:1008900084E026C08091390290913A02A0913B02F7
:1008A000B0913C02892B8A2B8B2B09F484CF0E94B8
:1008B0002B028090390290903A02A0903B02B090B7
:1008C0003C026C197D098E099F0986169706A806B9
:1008D000B90608F070CF809138020E94A20385E02B
:1008E00010923E021092600210923D02DF91CF9171
:1008F0001F910F91FF90EF90DF90CF90BF90AF903E
:100900009F908F9008959D9191938F5F69CF85EE11
:10091000A5CF8091390290913A02A0913B02B0910B
:100920003C02892B8A2B8B2B09F49ECF0E942B0231
:100930000091390210913A0220913B0230913C0221
:100940006C197D098E099F090617170728073907B3
:1009500008F08ACFC0CF81E0C3CF80E0C1CF82E072
:10096000BFCF83E0BDCF1F93CF93DF93EA01122F58
:10097000DC0111968D919C91DC01ED91FC9102803E
:10098000F381E02D0995C817D90729F4812F0E941A
:10099000C30391E0811190E0892FDF91CF911F91E6
:1009A0000895CF93DF93EC018B818823A1F0888198
:1009B00091E090933D0280935F0210923E0210926C
:1009C000600281E00E94C30391E0811190E0892FD1
:1009D000DF91CF9108951092100210920F021092A1
:1009E0003E02109260020E9484038AE990E0909394
:1009F0000E0280930D028BE990E090930C0280939D
:100A00000B0281E08B83CE010E94D104982F8111CB
:100A1000CECFDDCF0895E091100280910F02E8174C
:100A200030F4F0E0E551FE4F808190E008958FEFC3
:100A30009FEF08959091100280910F022FEF3FEFEA
:100A4000981748F4E92FF0E0E551FE4F208130E09F
:100A50009F5F90931002C901089580910F029091B9
:100A60001002891B990B0895CF92DF92EF92FF92AB
:100A70000F931F93CF93DF937C01CB018A012091C9
:100A80003D02222389F0EB016B01C40ED51ECC156B
:100A9000DD0569F06991D701ED91FC910190F0813C
:100AA000E02DC7010995F3CF642F0E945D03C801B3
:100AB000DF91CF911F910F91FF90EF90DF90CF903A
:100AC0000895CF93DF931F92CDB7DEB7698320914E
:100AD0003D022223F9F020916002203258F021E0FB
:100AE00030E0FC013383228390E080E00F90DF91BF
:100AF000CF91089580913E02E82FF0E0E15CFD4F38
:100B0000998190838F5F80933E028093600281E0A1
:100B100090E0ECCF61E0CE0101960E945D03F7CF3B
:100B200090E080E00895FC0101900020E9F7319702
:100B3000AF01481B590BBC0181E692E00C945002B6
:100B40008F929F92AF92BF920F931F93CF93DF9399
:100B5000CDB7DEB7A1970FB6F894DEBF0FBECDBFFD
:100B600019A2423008F44AE08E010F5D1F4F842E17
:100B7000912CB12CA12CA50194010E94C70DE62F48
:100B8000B901CA01EA30F4F4E05DD801EE938D01B9
:100B9000232B242B252B79F790E080E0109719F078
:100BA000CD010E949305A1960FB6F894DEBF0FBE4B
:100BB000CDBFDF91CF911F910F91BF90AF909F90CC
:100BC0008F900895E95CE1CF2F923F924F925F9210
:100BD0006F927F928F929F92AF92BF92CF92DF924D
:100BE000EF92FF920F931F93CF93DF9300D000D02B
:100BF000CDB7DEB7DC014B01042F18969C911897F6
:100C000019968C91199799838A832D903C9011970E
:100C10002114310409F43AC11B964C9150E0D101E2
:100C200014968D919C9184179507C8F4D12C8D2D25
:100C30000F900F900F900F90DF91CF911F910F9118
:100C4000FF90EF90DF90CF90BF90AF909F908F90EC
:100C50007F906F905F904F903F902F900895F1019B
:100C6000808191E090933D0280935F0210923E025A
:100C70001092600220E0BE016F5F7F4FC1010E94B1
:100C8000B304D82E882391F2802F90E09C838B832D
:100C9000B12CA12C01E0AB81BC81AA16BB0638F6B1
:100CA000F101848195817D01EA18FB088E159F056D
:100CB00008F47C01D101CC900E942B022B013C0155
:100CC00080913702811172C01E2D113208F010E29E
:100CD0000093370221E08B819C818E199F09A81611
:100CE000B90608F420E020933602BFEFB093350236
:100CF000109234028FEF810F80933302009312021F
:100D000080911202CC0CC82AC0921202809111026A
:100D1000813009F092C0109211020E942B022B0127
:100D20003C01809112028093BB0080913902909126
:100D30003A02A0913B02B0913C02892B8A2B8B2B6B
:100D4000A1F00E942B022091390230913A02409189
:100D50003B0250913C0264197509860997092617D0
:100D600037074807590708F442C08091BC0083FD4B
:100D7000D8CFE5ECE093BC000E942B022B013C0194
:100D800080913702813009F45CC080913402811770
:100D900010F410913402A3E1B2E0EBEEF1E080E058
:100DA000811751F19D9191938F5FFACF8091390214
:100DB00090913A02A0913B02B0913C02892B8A2B80
:100DC0008B2B09F47DCF0E942B02209139023091A8
:100DD0003A0240913B0250913C0264197509860920
:100DE0009709261737074807590708F069CF8091F8
:100DF00038020E94A20310E01092100210930F021A
:100E00001E151F0409F012CF34016A0C7B1C23014C
:100E1000C201861997098E159F05A8F5D101119673
:100E20008D919C91DC01ED91FC910284F385E02D84
:100E30000995F20181932F01EBCFF5EEF093BC0001
:100E40009BCF8091390290913A02A0913B02B091E0
:100E50003C02892B8A2B8B2B09F492CF0E942B0208
:100E60002091390230913A0240913B0250913C026C
:100E7000641975098609970926173707480759071E
:100E800008F07ECFB4CFAE0CBF1C05CF1296ED910B
:100E9000FC911397309749F116962D913C91179735
:100EA00010E01B964C9150E02330310571F48160C5
:100EB00089839A834F5F5F4F9401BE016F5F7F4FBD
:100EC000CF010E94EF01D82EB2CE2115310519F4C1
:100ED00090689983F1CF2230310511F49F77F9CFD3
:100EE0002130310549F7906CF4CF1496ED91FC91C7
:100EF0001597309709F49ACE8085882309F496CE09
:100F0000E480F580E114F10409F490CE10E09B0137
:100F10001B964C91BE016F5F7F4F81859285F701D3
:100F20000995D1CFCF93DF93EC01BC01635F7F4F75
:100F30004A850E94E405882301F14A8550E030E0AB
:100F400020E060E070E0CB0124173507CCF4982F47
:100F5000872F762F6627EC85E1110AC0FA01E21B84
:100F6000F30BEC0FFD1FE4856E2B2F5F3F4FECCF93
:100F7000FE01E20FF31FE585F7CF6FEF7FEFCB01A7
:100F8000DF91CF91089585ED8093BC008091390267
:100F900090913A02A0913B02B0913C020796A11DAC
:100FA000B11D23E0B695A795979587952A95D1F71A
:100FB0002091BC0024FD03C0109237020895409197
:100FC000390250913A0260913B0270913C02452BEC
:100FD000462B472B69F30097A105B10541F02AE2A2
:100FE0002A95F1F700C00197A109B109E1CF8091DD
:100FF00038020C94A2031F920F920FB60F92112485
:101000002F933F938F939F93AF93BF938091E3016F
:101010009091E401A091E501B091E6013091E201E7
:1010200023E0230F2D3758F50196A11DB11D209304
:10103000E2018093E3019093E401A093E501B09372
:10104000E6018091E7019091E801A091E901B0915A
:10105000EA010196A11DB11D8093E7019093E8017B
:10106000A093E901B093EA01BF91AF919F918F9155
:101070003F912F910F900FBE0F901F90189526E86B
:10108000230F0296A11DB11DD2CF1F920F920FB652
:101090000F9211242F933F934F935F936F937F93FE
:1010A0008F939F93AF93BF93EF93FF9381E692E06B
:1010B0000E94CE02FF91EF91BF91AF919F918F91CE
:1010C0007F916F915F914F913F912F910F900FBE44
:1010D0000F901F9018951F920F920FB60F92112428
:1010E0002F938F939F93EF93FF93E0917102F09171
:1010F00072028081E0917702F091780282FD1BC03C
:10110000908180917A028F5F8F7320917B0282178A
:1011100041F0E0917A02F0E0EF59FD4F958F809316
:101120007A02FF91EF919F918F912F910F900FBEB7
:101130000F901F9018958081F4CF1F920F920FB6D9
:101140000F9211242F933F934F935F936F937F934D
:101150008F939F93AF93BF93EF93FF938091B900C9
:10116000887F803609F44AC0F0F5883209F4A7C0B8
:1011700018F5803109F49BC0B8F4882309F4F9C04C
:10118000883009F494C0FF91EF91BF91AF919F9186
:101190008F917F916F915F914F913F912F910F9020
:1011A0000FBE0F901F901895883109F488C08032C7
:1011B00051F78093350214C0803409F49DC040F487
:1011C0008033B9F38833F9F68093350285ECB0C0EB
:1011D000803509F485C0883509F496C0883499F6BD
:1011E0000E94C307D0CF883909F48CC038F58837FE
:1011F00029F050F4883611F0803729F683E0809387
:1012000037021092DB0157C0883809F47BC080395F
:1012100019F0803809F0B7CF8091DB01803208F0F7
:1012200071C0E091DB0181E08E0F8093DB01809142
:10123000BB00F0E0E554FE4F80833DC0803B39F0B9
:10124000E0F4803A09F479C0883A09F09CCF84E050
:10125000809337021092BA011092B901E0910D0209
:10126000F0910E0209958091B90181110FC081E0C2
:101270008093B9011092990109C0803C09F4A6CF6E
:10128000883C09F4A3CF883B09F07DCFE091BA01F7
:1012900081E08E0F8093BA01F0E0E756FE4F808127
:1012A0008093BB009091BA018091B90129C08091CF
:1012B00012028093BB0085EC8093BC0064CF9091B8
:1012C000340280913302981758F5E091340281E09E
:1012D0008E0F80933402F0E0ED5EFD4F8081E9CF08
:1012E000E091340281E08E0F809334028091BB0044
:1012F000F0E0ED5EFD4F80839091340280913302E7
:101300009817C8F285E8D8CFE091340281E08E0FBB
:10131000809334028091BB00F0E0ED5EFD4F80834E
:101320008091360281115CCF81E08093110284EAC2
:101330008093BC001092370226CF85EC8093BC00CE
:10134000109237028091DB01803230F4E091DB01B2
:10135000F0E0E554FE4F10826091DB0170E0E09117
:101360000B02F0910C028BEB91E009951092DB01DE
:101370000ACF1092350234CF8F929F92AF92BF92D4
:10138000CF92DF92EF92FF920F931F93CF93DF9351
:101390007C01B62EA72E6A0149010E94E800E401F3
:1013A000080D191DC017D10761F4CB2DDA2DCC0E15
:1013B000DD1ECC15DD0551F06991C7010E940E01BB
:1013C000F8CF6991C7010E940E01ECCFC7010E94BE
:1013D000FB0081E0DF91CF911F910F91FF90EF9083
:1013E000DF90CF90BF90AF909F908F9008954F92D5
:1013F0005F926F927F928F929F92AF92BF92CF92A5
:10140000DF92EF92FF920F931F93CF93DF9300D061
:10141000CDB7DEB78C016A017B01DC018D919C9117
:101420000E9492072B013C01F801A080B180D501F8
:101430001A969C90B4E0B91508F473C0828141E01B
:1014400050E002C0440F551F8A95E2F74150510900
:10145000052E000C660B770BF381DB01CA010F2E02
:1014600004C0880F991FAA1FBB1F0A94D2F780954A
:101470009095A095B095482259226A227B22DB01E3
:10148000CA018C219D21AE21BF2104C0880F991F64
:10149000AA1FBB1FFA95D2F784299529A629B72937
:1014A000F501818B928BA38BB48B30E020E0E92C8B
:1014B000F12C2E153F05ACF4F501448541110AC00D
:1014C000E20FF31F8587892F9A2FAB2FBB272F5F42
:1014D0003F4FEFCFF701E21BF30BEA0DFB1D8487B3
:1014E000F2CF6501FDE0CF0ED11CD50118969C917D
:1014F000189719968C91199799838A838D909C904F
:1015000011978114910409F445C01B960C9110E0C9
:1015100098012E0D3F1DF401848195818217930758
:1015200010F480E015C081819281208131E03093F8
:101530003D0220935F0210923E021092600201155C
:101540001105C9F421E0A701B601C4010E94B3044A
:101550000F900F90DF91CF911F910F91FF90EF901F
:10156000DF90CF90BF90AF909F908F907F906F90C3
:101570005F904F900895DC01ED91FC910280F38122
:10158000E02DA801BE016F5F7F4F0995081719076D
:1015900041F6D8CF1296ED91FC911397309749F10F
:1015A00016962D913C9117971B960C9110E02330C5
:1015B000310571F48E7F89839A830F5F1F4F9E01DF
:1015C0002F5F3F4FA701B601CF010E94BC09C0CFDA
:1015D0002115310519F49F779983F1CF2230310518
:1015E00011F49068F9CF2130310549F79F77906465
:1015F000F3CFF501A481B581109709F492CF189625
:101600008C911897882309F48CCF16968D909C9016
:1016100017978114910409F484CF870196014385BB
:10162000BE016F5F7F4F19968D919C91F4010995D2
:101630008FCFE1E6F2E01382128288EE93E0A0E021
:10164000B0E084839583A683B7832AE031E03183B9
:10165000208325EC30E03587248724EC30E0378781
:10166000268720EC30E0318B208B21EC30E0338B6F
:10167000228B22EC30E0358B248B26EC30E0378B4C
:10168000268B118E128E138E148EEEEFF2E01382E3
:10169000128284839583A683B7838CE191E0918342
:1016A000808310920B0310920A030895CF93DF9367
:1016B000CDB7DEB76D970FB6F894DEBF0FBECDBFC6
:1016C000789484B5826084BD84B5816084BD85B51D
:1016D000826085BD85B5816085BD80916E00816029
:1016E00080936E00109281008091810082608093CF
:1016F00081008091810081608093810080918000D1
:101700008160809380008091B10084608093B100FB
:101710008091B00081608093B00080917A008460F5
:1017200080937A0080917A00826080937A00809121
:101730007A00816080937A0080917A00806880933B
:101740007A001092C100E0917102F091720282E081
:101750008083E0916D02F0916E021082E0916F0241
:10176000F09170028FEC808310927902E091750203
:10177000F091760286E08083E0917302F09174022A
:10178000808180618083E0917302F0917402808196
:1017900088608083E0917302F09174028081806898
:1017A0008083E0917302F091740280818F7D808349
:1017B0008AE291E00E94930587E491E00E949305FC
:1017C00080910A0390910B03009711F00E94691118
:1017D00086E090E00E94CD108C018CE2F8018083BD
:1017E0008EEF92E092838183138280E290E0958372
:1017F000848310930B0300930A031092100210923B
:101800000F0210923E02109260020E9484038AE945
:1018100090E090930E0280930D028BE990E09093FC
:101820000C0280930B02FF24F394F801F382C801A9
:101830000E94D104882309F4A0C180910A039091E9
:101840000B031A8A1B8A1C8A1D8A9A8389831C822D
:101850001B82FC861A8619861D86FB868E010F5F09
:101860001F4FC8010E949207603809F086C184EDBD
:1018700090EE9093DF018093DE018EEC95EF9093D4
:10188000DD018093DC0180910A0390910B031A8A99
:101890001B8A1C8A1D8A9A8389831C821B82FC8670
:1018A0008BE090E09A8789871D86FB861F8B0E8BC5
:1018B00092E0E92EE88EE98E43E050E060E070E0CF
:1018C000CE0146960E94F70980910A0390910B037E
:1018D0001A8A1B8A1C8A1D8A9A8389831C821B820E
:1018E000FC862AE0C22ED12CDA86C9861D86FB86AC
:1018F0001F8B0E8BE88E84E0898F41E050E060E022
:1019000070E0CE0146960E94F70980910A039091FB
:101910000B031A8A1B8A1C8A1D8A9A8389831C825C
:101920001B82FC86DA86C9861D86FB861F8B0E8B82
:10193000E88E86E0898F41E050E060E070E0CE0103
:1019400046960E94F70980910A0390910B031A8A28
:101950001B8A1C8A1D8A9A8389831C821B82FC86AF
:10196000DA86C9861D86FB861F8B0E8BE88EE98E74
:1019700041E050E060E070E0CE0146960E94F70939
:1019800080910A0390910B031A8A1B8A1C8A1D8A74
:101990009A8389831C821B82FC86DA86C9861D860F
:1019A000FB861F8B0E8BE88E198E43E050E060E0C3
:1019B00070E0CE0146960E94F7098AE491E00E9409
:1019C000930587E491E00E9493050E942B022B016E
:1019D0003C0180910A0390910B031A8A1B8A1C8A8E
:1019E0001D8A9A8389831C821B82F1E0FC8781E037
:1019F00090E09A8789871D8696E09B8746E0BE0126
:101A00006A5E7F4FC8010E94E405882331F02E886A
:101A10003F88E88DF98DFD8FEC8F8091DE019091EC
:101A2000DF01B101681B790B072E000C880B990BA5
:101A30000E947D0F6B017C018091DC019091DD01A2
:101A40006C8D7D8D681B790B072E000C880B990B14
:101A50000E947D0FA70196010E946F0E20E030E0EA
:101A600044E353E40E945C102BED3FE049E450E472
:101A70000E94D30E6B017C0120E030E0A9010E949E
:101A8000CE0E87FF0AC020E030E044EB53E4C701EC
:101A9000B6010E94F00D6B017C01C701B6010E94E6
:101AA000450F6B017093E1016093E0010E942B02EE
:101AB0004B015C018BE591E00E9493050D2C000C1D
:101AC000EE08FF084AE0C701B601F7FE0DC06DE25F
:101AD00081E692E00E94F00266277727CB016C191D
:101AE0007D098E099F094AE00E94A00587E491E0E4
:101AF0000E94930584189508A608B7088FE691E020
:101B00000E9493054AE0C501B4010E94A00587E444
:101B100091E00E9493050E942B024B015C0188EE2C
:101B2000C82E83E0D82EE12CF12C0E942B026819DC
:101B300079098A099B09683E734081059105A8F3DC
:101B4000F1E0CF1AD108E108F10828EE820E23E077
:101B5000921EA11CB11CC114D104E104F10429F7A7
:101B600080E090E0892B09F430CF0E94BA028823EC
:101B700009F42BCF0E94000028CFFFCF80910A03E9
:101B800090910B03009711F00C9469110895A1E254
:101B90001A2EAA1BBB1BFD010DC0AA1FBB1FEE1FE7
:101BA000FF1FA217B307E407F50720F0A21BB30B32
:101BB000E40BF50B661F771F881F991F1A9469F7AE
:101BC00060957095809590959B01AC01BD01CF010A
:101BD0000895EE0FFF1F0590F491E02D09945058E1
:101BE000BB27AA270E94070E0C941A100E940C1003
:101BF00038F00E94131020F039F49F3F19F426F4B6
:101C00000C94E20F0EF4E095E7FB0C94DC0FE92F47
:101C10000E942B1058F3BA176207730784079507C1
:101C200020F079F4A6F50C944D100EF4E0950B2EEF
:101C3000BA2FA02D0B01B90190010C01CA01A0011E
:101C40001124FF27591B99F0593F50F4503E68F179
:101C50001A16F040A22F232F342F4427585FF3CFBA
:101C6000469537952795A795F0405395C9F77EF48B
:101C70001F16BA0B620B730B840BBAF09150A1F0D4
:101C8000FF0FBB1F661F771F881FC2F70EC0BA0F5A
:101C9000621F731F841F48F4879577956795B795E2
:101CA000F7959E3F08F0B0CF9395880F08F09927DD
:101CB000EE0F9795879508950E940C1060F080E8CC
:101CC00091E009F49EEF0E94131028F040E851E0E3
:101CD00071F45EEF0CC00C94E20F0C944D10E92FE0
:101CE000E0780E942B1040F3092E052AB1F3261745
:101CF00037074807590738F00E2E07F8E02569F036
:101D0000E025E0640AC0EF6307F8009407FADB01FE
:101D1000B9019D01DC01CA01AD01EF930E94EA0EF9
:101D20000E941A100E949F0E5F91552339F02BEDEF
:101D30003FE049E450FD49EC0C94F00D0895DF9329
:101D4000DD27B92FBF7740E85FE31616170648076F
:101D50005B0718F4D92F0E9454109F938F937F93A1
:101D60006F930E94C910E8E6F0E00E94E50F0E9420
:101D70001A102F913F914F915F910E946F10DD23B8
:101D800051F09058A2EA2AED3FE049EC5FE3D078A9
:101D90005D270E94070EDF910C941A100E94B80F65
:101DA00008F481E008950E94E70E0C941A100E9436
:101DB000131058F00E940C1040F029F45F3F29F0F6
:101DC0000C94DC0F51110C944E100C94E20F0E94F5
:101DD0002B1068F39923B1F3552391F3951B550B01
:101DE000BB27AA2762177307840738F09F5F5F4FEE
:101DF000220F331F441FAA1FA9F335D00E2E3AF02D
:101E0000E0E832D091505040E695001CCAF72BD044
:101E1000FE2F29D0660F771F881FBB1F2617370795
:101E20004807AB07B0E809F0BB0B802DBF01FF27C7
:101E300093585F4F3AF09E3F510578F00C94DC0FB9
:101E40000C944E105F3FE4F3983ED4F3869577955B
:101E50006795B795F7959F5FC9F7880F911D969580
:101E6000879597F90895E1E0660F771F881FBB1FDC
:101E7000621773078407BA0720F0621B730B840B89
:101E8000BA0BEE1F88F7E09508950E944C0F6894F6
:101E9000B1110C944E1008950E94331088F09F5792
:101EA00098F0B92F9927B751B0F0E1F0660F771F7E
:101EB000881F991F1AF0BA95C9F714C0B13091F074
:101EC0000E944D10B1E008950C944D10672F782FAB
:101ED0008827B85F39F0B93FCCF386957795679539
:101EE000B395D9F73EF490958095709561957F4FA5
:101EF0008F4F9F4F0895E89409C097FB3EF490954B
:101F00008095709561957F4F8F4F9F4F9923A9F0D2
:101F1000F92F96E9BB279395F69587957795679561
:101F2000B795F111F8CFFAF4BB0F11F460FF1BC0A5
:101F30006F5F7F4F8F4F9F4F16C0882311F096E938
:101F400011C0772321F09EE8872F762F05C06623E6
:101F500071F096E8862F70E060E02AF09A95660F9F
:101F6000771F881FDAF7880F9695879597F9089558
:101F7000990F0008550FAA0BE0E8FEEF161617069A
:101F8000E807F907C0F012161306E407F50798F002
:101F9000621B730B840B950B39F40A2661F0232B1B
:101FA000242B252B21F408950A2609F4A140A69597
:101FB0008FEF811D811D089597F99F6780E870E07C
:101FC00060E008959FEF80EC0895DF93CF931F9317
:101FD0000F93FF92EF92DF927B018C01689406C011
:101FE000DA2EEF010E946F10FE01E894A591259171
:101FF000359145915591A6F3EF010E94070EFE0120
:102000009701A801DA9469F7DF90EF90FF900F91A4
:102010001F91CF91DF91089500240A941616170698
:1020200018060906089500240A94121613061406C9
:1020300005060895092E0394000C11F4882352F02C
:10204000BB0F40F4BF2B11F460FF04C06F5F7F4FE4
:102050008F4F9F4F089557FD9058440F551F59F0CB
:102060005F3F71F04795880F97FB991F61F09F3F85
:1020700079F087950895121613061406551FF2CFAE
:102080004695F1DF08C0161617061806991FF1CFFE
:1020900086957105610508940895E894BB27662725
:1020A0007727CB0197F908959B01AC0160E070E0C0
:1020B00080E89FE30C94D30E0E946F100C941A10CA
:1020C0000E940C1038F00E94131020F0952311F09C
:1020D0000C94DC0F0C94E20F11240C944E100E940F
:1020E0002B1070F3959FC1F3950F50E0551F629F21
:1020F000F001729FBB27F00DB11D639FAA27F00D61
:10210000B11DAA1F649F6627B00DA11D661F829F87
:102110002227B00DA11D621F739FB00DA11D621F6C
:10212000839FA00D611D221F749F3327A00D611D89
:10213000231F849F600D211D822F762F6A2F11246B
:102140009F5750409AF0F1F088234AF0EE0FFF1F9E
:10215000BB1F661F771F881F91505040A9F79E3FF5
:10216000510580F00C94DC0F0C944E105F3FE4F3AB
:10217000983ED4F3869577956795B795F795E7954B
:102180009F5FC1F7FE2B880F911D9695879597F954
:1021900008959B01AC010C945C100F931F93CF9397
:1021A000DF938230910510F482E090E0E0910E031D
:1021B000F0910F0330E020E0B0E0A0E0309799F418
:1021C0002115310509F44AC0281B390B243031058B
:1021D000D8F58A819B816115710589F1FB01938393
:1021E0008283FE0111C04081518102811381481711
:1021F0005907E0F04817590799F4109761F01296C3
:102200000C93129713961C933296CF01DF91CF91C6
:102210001F910F91089500930E0310930F03F4CFB5
:102220002115310551F04217530738F0A901DB01A0
:102230009A01BD01DF01F801C1CFEF01F9CF909301
:102240000F0380930E03CDCFFE01E20FF31F8193A6
:1022500091932250310939832883D7CF20910C03E1
:1022600030910D03232B41F42091020130910301A1
:1022700030930D0320930C03209100013091010154
:102280002115310541F42DB73EB74091040150911D
:102290000501241B350BE0910C03F0910D03E217AF
:1022A000F307A0F42E1B3F0B2817390778F0AC0179
:1022B0004E5F5F4F2417350748F04E0F5F1F509356
:1022C0000D0340930C03819391939FCFF0E0E0E0E6
:1022D0009CCFCF93DF930097E9F0FC0132971382F4
:1022E0001282A0910E03B0910F03ED0130E020E0C7
:1022F0001097A1F420813181820F931F20910C034C
:1023000030910D032817390709F061C0F0930D03D0
:10231000E0930C03DF91CF910895EA01CE17DF0718
:10232000E8F54A815B819E0141155105B1F7E9014C
:10233000FB83EA8349915991C40FD51FEC17FD0720
:1023400061F4808191810296840F951FE901998340
:102350008883828193819B838A83F0E0E0E01296F8
:102360008D919C9113970097B9F52D913C91119700
:10237000CD010296820F931F20910C0330910D0323
:102380002817390739F6309751F510920F0310923C
:102390000E03B0930D03A0930C03BCCFD383C28371
:1023A00040815181840F951FC817D90761F44E5F92
:1023B0005F4F88819981480F591F518340838A81DB
:1023C0009B81938382832115310509F0B0CFF0936F
:1023D0000F03E0930E039ECFFD01DC01C0CF1382FB
:1023E0001282D7CF10E0CFE6D0E004C0FE010E94F9
:0E23F000E90D2196C037D107C9F7F894FFCF49
:1023FE0000001003800000000000F00250027D0279
:10240E003D03AE028C02A0020000000061053405FF
:10241E0090050A052D051A050B05496E697469614B
:10242E006C697A696E67206D61676E65746F6D6534
:10243E007465722E2E2E000D0A004D61676E657446
:10244E006F6D65746572204F4B21004D61676E652F
:10245E00746F6D6574657220726561643A20005404
:10246E00696D6520746F2074616B6520616E6420E8
:10247E0070726F63657373206E6577207265616429
:08248E0020287573293A200093
:00000001FF
